:020000040000FA
:10000000601000200101000000000000000000005E
:1000100000000000000000000000000000000000E0
:1000200000000000000000000000000000000000D0
:1000300000000000000000000000000000000000C0
:1000400000000000000000000000000000000000B0
:1000500000000000000000000000000000000000A0
:100060000000000000000000000000000000000090
:100070000000000000000000000000000000000080
:1000800000F002F800F02CF80AA090E8000C82447E
:100090008344AAF10107DA4501D100F021F8AFF25B
:1000A000090EBAE80F0013F0010F18BFFB1A43F056
:1000B00001031847E4010000F401000000230024BC
:1000C00000250026103A28BF78C1FBD8520728BF68
:1000D00030C148BF0B6070471FB51FBD10B510BDC4
:1000E00000F023F81146FFF7F7FF00F05FF800F08B
:1000F00041F803B4FFF7F2FF03BC00F045F800003D
:100100000348004703480449044A054B7047000070
:10011000810000006000002060100020600C0020C2
:10012000600C0020704770477047754600F028F853
:10013000AE4605006946534620F00700854618B0D4
:1001400020B5FFF7DFFFBDE820404FF000064FF07D
:1001500000074FF000084FF0000B21F00701AC46FC
:10016000ACE8C009ACE8C009ACE8C009ACE8C0091B
:100170008D4670470446AFF300802046FFF7B9FF75
:10018000004870470000002001491820ABBEFEE780
:10019000260002007047014605E0C82200E0521E1A
:1001A000002AFCD1491E0029F7D1704700BF22E088
:1001B0004FF0A240006810B900F01EF81BE04FF0AD
:1001C000A2400068012802D100F01BF813E04FF0B4
:1001D000A2400068022802D100F02FF80BE04FF097
:1001E000A2400068032802D100F043F803E0002099
:1001F0004FF0A0410860DBE7FF204FF0A04108600E
:10020000704710B5002401204FF0A04108604FF462
:10021000FA60FFF7C0FF0CE04FF0A040006840001C
:100220004FF0A04108604FF4FA60FFF7B4FF601C84
:10023000C4B2072CF0DD002410BD10B500248020CE
:100240004FF0A04108604FF4FA60FFF7A4FF0CE004
:100250004FF0A040006840084FF0A04108604FF404
:10026000FA60FFF798FF601CC4B2072CF0DD002491
:1002700010BD00B540F6C410FFF78DFF00204FF011
:10028000A041086040F6C410FFF785FFFF204FF043
:10029000A041086000BD0000A8020000000000208E
:0802A00060100000BC0000002A
:0400000500000000F7
:00000001FF
