:020000040000FA
:10000000601000200101000000000000000000005E
:1000100000000000000000000000000000000000E0
:1000200000000000000000000000000000000000D0
:1000300000000000000000000000000000000000C0
:1000400000000000000000000000000000000000B0
:1000500000000000000000000000000000000000A0
:100060000000000000000000000000000000000090
:100070000000000000000000000000000000000080
:1000800000F002F800F02CF80AA090E8000C82447E
:100090008344AAF10107DA4501D100F021F8AFF25B
:1000A000090EBAE80F0013F0010F18BFFB1A43F056
:1000B000010318471C0100002C010000002300244C
:1000C00000250026103A28BF78C1FBD8520728BF68
:1000D00030C148BF0B6070471FB51FBD10B510BDC4
:1000E00000F023F81146FFF7F7FF00F061F800F089
:1000F00041F803B4FFF7F2FF03BC00F045F800003D
:100100000348004703480449044A054B7047000070
:10011000810000006000002060100020600C0020C2
:10012000600C0020704770477047754600F028F853
:10013000AE4605006946534620F00700854618B0D4
:1001400020B5FFF7DFFFBDE820404FF000064FF07D
:1001500000074FF000084FF0000B21F00701AC46FC
:10016000ACE8C009ACE8C009ACE8C009ACE8C0091B
:100170008D4670470446AFF300802046FFF7B9FF75
:10018000004870470000002001491820ABBEFEE780
:10019000260002007047014642F6E06003E000E0FE
:1001A000401E0028FCDA0A00A1F10101F7D17047D6
:1001B0000DE05520010708604FF49670FFF7EBFF44
:1001C0004FF0A0400068C0434FF0A0410860F0E746
:1001D000E00100000000002060100000BC000000F2
:0400000500000101F5
:00000001FF
